S00F000050726F6A6563742E737265633E
S113000046C000006EC000006CC000006AC0000062
S113001068C0000066C0000064C0000062C0000048
S113002060C000005EC000005CC000005AC0000058
S113003058C00000FFC5000054C0000052C00000BA
S113004050C000004EC000004CC000004AC0000078
S113005048C0000046C0000044C0000042C0000088
S113006040C000003EC000003CC000003AC0000098
S113007038C0000036C0000034C0000032C00000A8
S113008030C000002EC000002CC00000A70B1124BB
S11300901FBECFEFD0E4DEBFCDBF13E0A0E0B1E0E0
S11300A0E8E6FDE100E00BBF02C007900D92AE3020
S11300B0B107D9F723E0AEE0B3E001C01D92A83A3E
S11300C0B207E1F710E0C7E4D0E004C02197FE01D5
S11300D00E94BF0BC634D107C9F70E94630B0C946E
S11300E0B20E8ECF61110EC045B121E030E0B901EE
S11300F002C0660F771F8A95E2F7CB0180958423AF
S113010085B9089545B121E030E0B90102C0660F18
S1130110771F8A95E2F7CB01842B85B908952C9A31
S113012084B1806B84B98CB580618CBD8CB58064DE
S11301308CBD8CB58F7D8CBD8CB5837F8CBD0895B3
S1130140CF93DF93EC0184E08C8789E08D87249A38
S113015061E08C85C7DF24B181E090E00D8402C0AA
S1130160880F991F0A94E2F7822B84B960E08D8589
S1130170B9DFCE01D4DFDF91CF9108950F931F93A0
S1130180CF93DF938C01C62FD42F60E0FC018485CC
S1130190A9DFCE77CEBD0DB407FEFDCF8EB5DEBD93
S11301A00DB407FEFDCF8EB561E0F80184859ADFBA
S11301B0DF91CF911F910F910895EF92FF920F93CA
S11301C01F93CF93DF93EC01062F142F790160E086
S11301D08C8588DF0E770EBD0DB407FEFDCF8EB57E
S11301E0112391F0F7011150412F50E04F5F5F4F01
S11301F09701240F351F91919EBD0DB407FEFDCFCD
S11302008EB5E217F307B9F761E08C856BDFDF91F8
S1130210CF911F910F91FF90EF9008950F931F932B
S1130220CF938C01C62F60E0FC0184855BDFCE7721
S1130230C068CEBD0DB407FEFDCF8EB51EBC0DB497
S113024007FEFDCFCEB561E0F80184854BDF8C2F2E
S1130250CF911F910F910895CF92DF92EF92FF9269
S11302600F931F93CF93DF93442309F456C079016E
S1130270C42FD62F6C01DE77D06860E0DC011C96B9
S11302808C9130DF4FEF4C0FDEBD0DB407FEFDCF78
S11302908EB54423A9F1F70190E080E0202F61E0BE
S11302A070E0911123C0002309F1083070F4522F3B
S11302B0382FDB01052E02C0AA0FBB1F0A94E2F7F8
S11302C03A2B5F5F5830A9F701C0382FDEBD0DB45B
S11302D007FEFDCF5EB5C32FC095D7011C91A12F9A
S11302E0AC2335233A2BD7013C9306C0DEBD0DB4B5
S11302F007FEFDCF3EB530839F5F31964913D1CFC2
S1130300F701E40FF11D1EBC0DB407FEFDCF8EB541
S1130310808361E0F6018485E5DEDF91CF911F9152
S11303200F91FF90EF90DF90CF9008950F931F935C
S1130330CF93DF938C01D62FC42F70DF482F4C2B23
S11303406D2FC8011BDFDF91CF911F910F9108958D
S11303500F931F93CF93DF938C01D62FC42F5EDFAF
S1130360C095482F4C236D2FC80108DFDF91CF9132
S11303701F910F910895CF92DF92EF92FF920F9306
S11303801F93CF93DF938C016B01C42F790140E05D
S113039062E0F4DE44E06AE0C801F0DE40E864E1D3
S11303A0C801C4DF96014C2F62E1C80106DF43E0B7
S11303B062E0C801E3DEC8E8D3E16AE0C8012EDFE9
S11303C082FD03C02197C9F710C040E062E0C80174
S11303D0D5DE64E4C80122DFF701808362E4C8014A
S11303E01DDFF701818381E001C084E0DF91CF91BB
S11303F01F910F91FF90EF90DF90CF900895CF93CE
S1130400DF93EC014FE062E0B9DE83ED90E3019706
S1130410F1F700C0000062E0CE0100DF84FDFBCFF5
S1130420DF91CF910895CF93DF93EC0168E2F6DE7C
S1130430482F8370833021F0436068E2CE019EDE52
S1130440DF91CF910895CF93DF93EC018D8523B194
S113045030E0082E02C0359527950A94E2F720FD76
S113046009C061E03FDE83ED90E30197F1F700C03E
S1130470000002C0CE01C3DF40E864E5CE017EDEA9
S113048049EA66E5CE017ADE43E068E5CE0176DE30
S113049048EE6AE5CE0172DE40E46AE2CE016EDE29
S11304A04DE362E2CE016ADECE01BDDFDF91CF9182
S11304B008953F924F925F926F927F928F929F9294
S11304C0AF92BF92CF92DF92EF92FF920F931F935E
S11304D0CF93DF9300D0CDB7DEB73C01962E142F17
S11304E02901A114B10419F0F501308001C0312CA7
S11304F0F0E18F9E300C112440E062E0C3013EDE47
S11305004FE768E0C3013ADE40E864E1C3010EDF6F
S11305109201402F62E1C30150DE432D6AE1C30121
S11305202DDE492D62E0C30129DE8CE0981204C05F
S113053040E86AE1C301FADE0F2EF0ED4F2EF7E03A
S11305405F2EF02D68E0C30169DE982F912339F402
S113055080FD70C0E1E04E1A5108A1F76DC06CE057
S1130560C3015CDE182F837109F068C0E114F10443
S1130570E9F0C114D104D1F064E1C3014FDEF60106
S11305809081981708F45CC08083082D9701482F48
S113059062E1C30161DE68E1C30140DE8770A1143A
S11305A0B10409F459C0F501808356C013FD4AC053
S11305B0E114F10409F448C0C114D10409F446C09B
S11305C080E09E89992309F443C0F601908191301B
S11305D021F4843029F188E042C0923018F181116D
S11305E023C04EEF490F9E012F5F3F4FB701C30158
S11305F0C2DE8130A1F5F601808190E0F701E80FB9
S1130600F91F329730812981321310C08E0D9F1D3E
S1130610FC01319790818A8198130AC081E01FC040
S113062089E01DC088E01BC088E019C088E017C0BD
S113063088E015C084E013C084E011C082E00FC0DC
S113064085E00DC083E00BC081E009C081E007C0F4
S113065081E005C083E003C013FDFCCFB2CF0F904F
S11306600F90DF91CF911F910F91FF90EF90DF904A
S1130670CF90BF90AF909F908F907F906F905F903E
S11306804F903F9008958F92AF92BF92CF92DF9296
S1130690EF92FF920F931F93AF928C2C5701680136
S11306A07901042F9B0140E36CE003DF0F901F915D
S11306B00F91FF90EF90DF90CF90BF90AF908F900D
S11306C008954F925F926F927F928F929F92AF9212
S11306D0CF92EF92FF920F931F93CF93DF9300D0AB
S11306E0CDB7DEB76A834115510521F1F901608167
S11306F0623010F139014A012C0140E86CE128DE36
S113070087E08983A12CC12CCE0101967C01830151
S1130710940141E0BE016E5F7F4FC201B4DF8130BE
S113072071F4F3018081823049F49981911107C0F9
S113073081E005C085E003C085E001C082E00F9040
S11307400F90DF91CF911F910F91FF90EF90CF9079
S1130750AF909F908F907F906F905F904F9008958F
S11307609A01AB0166E2ADCF08952F923F924F926A
S11307705F926F927F928F929F92AF92BF92CF922D
S1130780DF92EF92FF920F931F93CF93DF93CDB736
S1130790DEB764970FB6F894DEBF0FBECDBF413508
S11307A008F037C14A8B788B6F879D878C8740E828
S11307B06CE1CEDD21E0298BAE014F5F5F4F3A0142
S11307C0242E572C5A8958515B8B5695569556951D
S11307D05C8B8989823099F0833001F1813009F092
S11307E01AC183E989839A89992309F454C1EF854D
S11307F0F8898081853008F02FC11E861AC185E9E9
S11308008983FA89FF2309F458C1EF85F889808127
S1130810883008F023C1F3E0FE870BC187E98983A0
S113082026E02E8706C182E030E024E003C083E0A6
S113083031E023E0291708F4922F992389F04E859B
S1130840E42FF0E031964F855889E40FF51F980F97
S11308502191D301A80FB11D2C938F5F8913F8CF79
S1130860332309F412C158E0D50E0FC18FE18D1561
S113087010F590E79A839C818B8189279D81892734
S11308809E8189278F839E01285F3F4F432D622DD0
S1130890752D8C859D856FDD813009F01CC14B86DB
S11308A0E3E0EA879E01295F3F4F49010F2EF9E0FB
S11308B0BF2EF02D1BC09D2D97709B872D2D269547
S11308C02695269582E0820F392F40E1849F300DD2
S11308D011243A83BB24B394911101C0B42CB80EF3
S11308E04301880E911C832D821B8A87CB844C2D57
S11308F04295407F4C0D6AE18C859D853FDCA42C9C
S1130900CE010B967C018E01065F1F4F94014B2D87
S1130910622D752D8C859D85B6DE8330A9F56CE13D
S11309208C859D857BDC85FD78C08F7109F480E220
S1130930D81608F074C0282F30E0215031092770F0
S11309403078332334F421503109286F3F6F2F5FFF
S11309503F4F982F96959695969531E0390F91E0F3
S1130960211101C0942D930FF301E90FF11D41E012
S113097050E002C0440F551F2A95E2F79A01908176
S1130980292B2083D82E72CF813009F0A4C05FE1D7
S11309905D1520F06894DD24D5F868CF8B81883804
S11309A009F07CC07EC0D301A80FB11D2C91219306
S11309B08F5F8913F8CF8A85833099F58B858111F0
S11309C032C09E012D5F3F4F41E0B4018C859D856F
S11309D0D2DC813009F07FC09B81F40181819813BE
S11309E024C09C818281981322C0808182FF04C02C
S11309F0F989FF5FF98BEDCEEF85F88983878989C3
S1130A00880FF9898F0F8F5FEF85F889808381E0E4
S1130A1062C087E060C086E05EC083E05CC086E0C0
S1130A205AC082E058C082E056C088E054C088E0D2
S1130A3052C08E85880F880F880FDA88D81A8D2DBA
S1130A40877091E009F490E08D2D869586958695C2
S1130A50980F09F0E8CE19C01E8602C0F3E0FE87A5
S1130A608E85880F880F880FDA88D81A88E88B83D8
S1130A708D2D877091E009F490E08D2D86958695F3
S1130A808695980F09F0D3CEEECE0F2EF7E03F2EC9
S1130A90F02D412CEBCEDA881E86F7CF82E094E06D
S1130AA002C083E093E02E85E22FF0E031964F857B
S1130AB05889E40FF51F980F76CFDB8891E08D2DD0
S1130AC0877009F490E05C89950F83E08E8782E05B
S1130AD030E024E0AFCE64960FB6F894DEBF0FBECC
S1130AE0CDBFDF91CF911F910F91FF90EF90DF90D9
S1130AF0CF90BF90AF909F908F907F906F905F90BA
S1130B004F903F902F900895CF93DF9300D01F9282
S1130B10CDB7DEB722E02B83AE014D5F5F4FBE0140
S1130B206F5F7F4F1DDE813029F091E0833019F033
S1130B3090E001C091E0892F0F900F900F90DF910A
S1130B40CF91089540E0BC0110DE91E0813009F0BE
S1130B5090E0892F0895181619065CF00895000096
S1130B6021503109E1F74F5F5F4F4817590729F4C6
S1130B70089540E050E077E063E0272F362FEFCF71
S1130B805E9888B95F9A00005F9882E090E0E3CFB6
S1130B90089581E0F5CF0895813118F48158F0CF9C
S1130BA008958155EDCF08955E9A88B95F9A000043
S1130BB05F9881E090E0CFCF08950F931F93CF9378
S1130BC0DF93182FEB01E5DF8881882351F001E0E2
S1130BD0010F812FE1DF8991E7DF102F88818111D7
S1130BE0F6CFDF91CF911F910F9108958BE0809301
S1130BF081008DE790E0909389008093880082E0E3
S1130C0080936F00109285001092840080912701D8
S1130C1090912801A0912901B0912A018093A30306
S1130C209093A403A093A503B093A6038FB7806801
S1130C308FBF08951F920F920FB60F9211248F93B6
S1130C409F93AF93BF938091A3039091A403A0912A
S1130C50A503B091A6030197A109B1098093A30349
S1130C609093A403A093A503B093A603892B8A2B86
S1130C708B2B99F481E08093A703809127019091B5
S1130C802801A0912901B0912A018093A303909394
S1130C90A403A093A503B093A603BF91AF919F9122
S1130CA08F910F900FBE0F901F9018958EBD0DB4AD
S1130CB007FEFDCF8EB5089593E09A95F1F70000F5
S1130CC05A9893E09A95F1F70000F0DF83E08A9553
S1130CD0F1F700008FEFEADF93E09A95F1F7000057
S1130CE05A9A0895CF92DF92EF92FF920F931F9337
S1130CF0CF93DF93182F062F6A017901813009F40D
S1130D00005E83E08A95F1F700005A9883E08A95A3
S1130D10F1F70000802FCADF83E08A95F1F7000025
S1130D201E141F04F4F4C0E0D0E011110DC0003A09
S1130D3059F08FEFBBDFFE01E25FFC4F808383E05D
S1130D408A95F1F7000009C0F601EC0FFD1F8081C0
S1130D50ADDF83E08A95F1F700002196CE15DF051B
S1130D6021F75A9A8EE093E0DF91CF911F910F9172
S1130D70FF90EF90DF90CF9008951F93CF93DF9370
S1130D8000D000D01F92CDB7DEB787EA91E6019775
S1130D90F1F700C0000011E0198321E030E0AE015A
S1130DA04F5F5F4F61E081E09DDF8FE2898321E047
S1130DB030E0AE014F5F5F4F64E081E093DF198361
S1130DC021E030E0AE014F5F5F4F62E081E08ADFF7
S1130DD083E0898321E030E0AE014F5F5F4F63E041
S1130DE081E080DF198321E030E0AE014F5F5F4F87
S1130DF065E081E077DF87E0898321E030E0AE01C0
S1130E004F5F5F4F66E081E06DDF12E119831A8363
S1130E101B831C831D8325E030E0AE014F5F5F4FD1
S1130E206AE081E05FDF19831A831B831C831D83BF
S1130E3025E030E0AE014F5F5F4F60E181E052DFBB
S1130E4085E0898321E030E0AE014F5F5F4F61E1CF
S1130E5081E048DF8EE1898321E030E0AE014F5F1D
S1130E605F4F60E081E03EDF87EA91E60197F1F7AA
S1130E7000C000000F900F900F900F900F90DF9123
S1130E80CF911F910895CF93DF9300D000D01F928C
S1130E90CDB7DEB783ED90E30197F1F700C0000012
S1130EA08EE1898321E030E0AE014F5F5F4F60E067
S1130EB081E018DF83ED90E30197F1F700C00000B3
S1130EC00F900F900F900F900F90DF91CF91089596
S1130ED0CF93DF93EC0120E030E0AC0161EE80E0E1
S1130EE001DF25E030E0AE0160EA80E0FBDE83EC68
S1130EF099E00197F1F700C00000599A96E09A959D
S1130F00F1F700C0599883EC99E00197F1F700C01C
S1130F100000DF91CF91089583E08A95F1F70000F6
S1130F205A9883E08A95F1F7000087E2BFDE83E0F8
S1130F308A95F1F7000080E7B9DE83E08A95F1F73E
S1130F4000005A9A0895CF93DF9323E02A95F1F78E
S1130F500000599823E02A95F1F7000025E030E0DD
S1130F60AC0161E680E0BEDEEC01D6DF83E08A9569
S1130F70F1F70000599A23E02A95F1F70000CE0119
S1130F80DF91CF9108957F928F929F92AF92BF92FB
S1130F90CF92DF92EF92FF920F931F93CF93DF9341
S1130FA0CDB7DEB765970FB6F894DEBF0FBECDBFE1
S1130FB088E893E0A9DD882309F4A3C080910201A5
S1130FC0882309F4AAC088E893E0BCDD882309F4E7
S1130FD0A4C080918803882391F10F2EF9E8AF2EE5
S1130FE0F3E0BF2EF02D8E010F5F1F4FE12CF12C8B
S1130FF00F2EF8E0CF2EF3E0DF2EF02D0F2EF8E8C1
S11310008F2EF3E09F2EF02DF50181915F011F9249
S11310108F93DF92CF921F930F93DBD3FFEFEF1ADF
S1131020FF0A0E5F1F4FF401808190E00F900F9034
S11310300F900F900F900F90E816F9062CF31E8A6C
S1131040BE016F5F7F4F81E0B8DDC0904A03D0904E
S11310504B03F5E0CF16D1040CF050C01C141D0452
S11310605CF590908803A92CB12C0CE413E0760174
S1131070EE0CFF1CEC0CFD1CC701880F991F880F98
S1131080991F9C01245B3C4F790188248394712C23
S1131090F8018081981209C0A50169E873E0C801CC
S11310A001968AD3892B09F4872C045F1F4F0E15F0
S11310B01F0571F7882011F1C601019690934B0327
S11310C080934A03D601AA0FBB1FAC0DBD1DAA0F06
S11310D0BB1FAA0FBB1FA45BBC4F8CE0E8E8F3E086
S11310E001900D928A95E1F722B181E090E002C06F
S11310F0880F991FCA94E2F7822B82B910920201D9
S11311000CC0809149038F5F80934903823028F09B
S113111081E0809302011092490365960FB6F8941A
S1131120DEBF0FBECDBFDF91CF911F910F91FF9016
S1131130EF90DF90CF90BF90AF909F908F907F9073
S1131140089580914803823021F128F4882359F0CE
S1131150813069F05EC0843009F43FC080F185308D
S113116009F451C056C085E080934803089583B1C3
S1131170882309F47AC085E08093480380914A0368
S113118090914B0302970CF470C082E08093480363
S11311904BC0809146039091470365E070E0DCD238
S11311A0809100019091010168177907ECF183E0C7
S11311B08093480310924703109246032DC08091F8
S11311C04603909147038D97DCF184E080934803B4
S11311D010924703109246031FC0809146039091DA
S11311E0470365E070E0B8D280910001909101015D
S11311F0681779077CF185E08093480310924703D0
S11312001092460309C0189930C081E080934803C6
S1131210089510924803089580914803833081F023
S11312208430C1F0823009F580E282B980914603AE
S11312309091470301969093470380934603089542
S113124080914603909147030196909347038093BE
S11312504603089580E482B9809146039091470340
S11312600196909347038093460308958F929F922B
S1131270AF92BF92CF92DF92EF92FF920F931F93A0
S1131280CF93DF93CDB7DEB729970FB6F894DEBFBF
S11312900FBECDBFFE01319689E0DF011D928A9514
S11312A0E9F70F2EF5E1EF2EF1E0FF2EF02DBF014F
S11312B00CE313E0C12CD12CBB24B3946894AA246E
S11312C0A1F805C06F5F7F4F0F5F1F4F6A01F701E1
S11312D081917F01A6014F5F5F4F8F3031F4DB01B5
S11312E0BC924930510574F358C0CA0149305105C4
S11312F00CF053C0E1E0F0E0EC0FFD1FE40FF51F2C
S11313009601225E3E4F49012191211140C09C016A
S1131310225E3E4FD9013C91D4012C91321337C047
S1131320D8012C91FC01E45CFC4F3081231729F196
S1131330211104C0332349F03C931FC0311105C06F
S1131340FC01E45CFC4F208318C0F601ED5CFC4F0B
S1131350D080FC01ED5CFC4FE081DE1206C0AC9253
S1131360FC01E45CFC4FA08208C0DE1628F4FC01FA
S1131370E45CFC4F208301C03C93E1E0F0E0EC0F1F
S1131380FD1FE80FF91FB082FB01B0829BCF0196CD
S11313908930910509F0B8CF95CF29960FB6F89406
S11313A0DEBF0FBECDBFDF91CF911F910F91FF9094
S11313B0EF90DF90CF90BF90AF909F908F90089563
S11313C03F924F925F926F927F928F929F92AF92D1
S11313D0BF92CF92DF92EF92FF920F931F93CF931E
S11313E0DF9300D000D0CDB7DEB740DF03E011E0DB
S11313F00F2EF6E9CF2EF3E0DF2EF02D0F2EF7E2BD
S1131400AF2EF1E0BF2EF02D4CE353E00F2EFEE1A2
S1131410EF2EF1E0FF2EF02D25E433E04A013701F1
S113142033243394D7018D917D01843010F48D5F82
S113143001C08350F4017C826B82BA01AB81BC8110
S11314409D91BC83AB83981345C0DA015C90FA8309
S1131450E9834080541005C051104DC0D6013C9220
S11314600FC0511008C0DB013C92A981BA819C9144
S11314709130D9F40EC0411041C0A981BA813C9287
S1131480DB019C91A981BA815C9095110CC09130CB
S113149009F5D8014D905C90B2E04B0E511CD80177
S11314A04D925C9217C0913051F4D8014D905C90EC
S11314B0B2E04B1A5108D8014D925C920BC09230A5
S11314C049F4D8014D905C90B3E04B0E511CD80107
S11314D04D925C923196E217F30709F0AFCF0E5F9D
S11314E01F4F4F5F5F4FBFEFCB1ADB0AEA14FB04B9
S11314F009F098CF06C0DB019C91C9CFDB019C9118
S1131500D2CF0F900F900F900F90DF91CF911F913A
S11315100F91FF90EF90DF90CF90BF90AF909F908E
S11315208F907F906F905F904F903F900895CF93EE
S1131530DF9300D000D01F92CDB7DEB78091450372
S1131540823091F128F48823B1F0813011F14BC03D
S1131550863009F43EC0873021F0843009F043C05E
S113156027C080919F039091A0030A970CF4A3C015
S11315701092450348C087E09FDB84FD08C081E0EA
S1131580809345031092320310923103119AC4DC04
S11315902AC080913103909132038D970CF43AC0A4
S11315A082E08093450340C087E086DBB5DC1BC046
S11315B080912F039091300309970CF43DC086E08D
S11315C08093450360DCFCDE1092300310922F03FD
S11315D00AC087E071DB80912E038A3020F085E019
S11315E08093450368C0809145038230E9F028F474
S11315F0882349F0813071F05EC08430E9F0863090
S113160009F43EC058C08EEF8983CE01019660DC98
S113161083DC51C080913103909132030196909301
S113162032038093310347C08DEF8983CE01019645
S11316304FDC72DC109A3FC087E03EDB86FF3BC084
S1131640CE01019680DC298130E0C9010197FC01BB
S1131650E45CFC4F4A814083FC01ED5CFC4F4B8110
S11316604083FC01E25EFE4F4C814083FC01EB5E53
S1131670FE4F4D8140833093300320932F031BC0D2
S11316808CEF898380912E038A8390E00197FC017B
S1131690EE0FFF1FED5FFE4F20812B83FC01E25E06
S11316A0FE4F20812C83FC01EB5EFE4F80818D83F5
S11316B0CE0101960DDC0F900F900F900F900F90BC
S11316C0DF91CF91089584B18C7F84B983B1836015
S11316D085B98FEF81B912B887B918B88AB91BB820
S11316E088E893E00E9423025A9A599846DB88ECD2
S11316F090E0A0E0B0E08093270190932801A093AC
S11317002901B0932A018093A3039093A403A09387
S1131710A503B093A6036ADAC5E0D0E08091A703DD
S11317208823E1F31092A7038091A1039091A2036F
S113173001969093A2038093A103BE010DD07093F0
S1131740A00360939F03F3DE1EDCFBDCE7CF88E895
S113175093E00C94A000089597FB072E16F40094D0
S113176006D077FD08D014D007FC05D03EF4909540
S113177081959F4F0895709561957F4F0895EE0F61
S1131780FF1F0024001C0BBE0790F691E02D099466
S1131790AA1BBB1B51E107C0AA1FBB1FA617B70793
S11317A010F0A61BB70B881F991F5A95A9F78095AF
S11317B09095BC01CD010895FB01DC0104C08D911D
S11317C00190801921F441505040C8F7881B990BAF
S11317D008950F931F93CF93DF93CDB7DEB72E9762
S11317E00FB6F894DEBF0FBECDBF0D891E8986E00B
S11317F08C831A8309838FEF9FE79E838D83AE01C9
S1131800475E5F4F6F89788DCE01019611D02F818D
S11318103885F801E20FF31F10822E960FB6F89464
S1131820DEBF0FBECDBFDF91CF911F910F91089501
S11318302F923F924F925F926F927F928F929F92DC
S1131840AF92BF92CF92DF92EF92FF920F931F93CA
S1131850CF93DF93CDB7DEB72C970FB6F894DEBFE6
S11318600FBECDBF7C016B018A01FC011782168279
S1131870838181FFB0C1CE0101964C01F7019381B0
S1131880F60193FD859193FF81916F01882309F4FB
S11318909EC1853239F493FD859193FF81916F0147
S11318A0853221F4B70190E0C7D1E8CF512C312C17
S11318B020E02032A0F48B3269F030F4803259F009
S11318C0833269F420612CC08D3239F0803339F4CD
S11318D0216026C02260246023C0286021C027FD27
S11318E027C030ED380F3A3078F426FF06C0FAE00E
S11318F05F9E300D1124532E13C08AE0389E300DA4
S11319001124332E20620CC08E3221F426FD5FC1D7
S1131910206406C08C3611F4206802C0883641F475
S1131920F60193FD859193FF81916F018111C1CFE0
S1131930982F9F7D9554933028F40C5F1F4FFFE33D
S1131940F9830DC0833631F0833771F0833509F0A4
S113195057C021C0F801808189830E5F1F4F442442
S11319604394512C540114C03801F2E06F0E711CE1
S1131970F801A080B18026FF03C0652D70E002C08D
S11319806FEF7FEFC5012C874CD12C0183012C858F
S11319902F77222E16C03801F2E06F0E711CF80169
S11319A0A080B18026FF03C0652D70E002C06FEFF8
S11319B07FEFC5012C872AD12C012C852068222E8B
S11319C0830123FC19C0832D90E048165906A0F426
S11319D0B70180E290E030D13A94F5CFF50127FCCD
S11319E0859127FE81915F01B70190E025D13110E7
S11319F03A94F1E04F1A51084114510479F7DEC0CA
S1131A00843611F0893631F5F80127FF07C060816B
S1131A107181828193810C5F1F4F08C06081718145
S1131A20072E000C880B990B0E5F1F4F2F76722E1A
S1131A3097FF09C090958095709561957F4F8F4F62
S1131A409F4F2068722E2AE030E0A4012DD1A82EE9
S1131A50A81843C0853729F42F7EB22E2AE030E03F
S1131A6025C0F22FF97FBF2E8F36C1F018F48835C8
S1131A7079F0ADC0803719F0883721F0A8C02F2F36
S1131A802061B22EB4FE0DC08B2D8460B82E09C027
S1131A9024FF0AC09F2F9660B92E06C028E030E0CC
S1131AA005C020E130E002C020E132E0F801B7FED9
S1131AB007C060817181828193810C5F1F4F06C0D2
S1131AC06081718180E090E00E5F1F4FA401ECD033
S1131AD0A82EA818FB2DFF777F2E76FE0BC0372D7E
S1131AE03E7FA51450F474FE0AC072FC08C0372D62
S1131AF03E7E05C0BA2C372D03C0BA2C01C0B52CCC
S1131B0034FF0DC0FE01EA0DF11D8081803311F414
S1131B10397E09C032FF06C0B394B39404C0832F46
S1131B20867809F0B39433FD12C030FF06C05A2CF6
S1131B30B31418F4530C5B18B32CB31460F4B7014A
S1131B4080E290E03C8778D0B3943C85F6CFB31420
S1131B5010F43B1801C0312C34FF11C0B70180E3ED
S1131B6090E03C8769D03C8532FF16C031FD03C04C
S1131B7088E790E002C088E590E0B7010CC0832FAD
S1131B80867851F031FF02C08BE201C080E237FD5C
S1131B908DE2B70190E050D0A51430F4B70180E392
S1131BA090E04AD05A94F8CFAA94F401EA0DF11DBA
S1131BB08081B70190E040D0A110F6CF332009F422
S1131BC05DCEB70180E290E037D03A94F7CFF701C9
S1131BD08681978102C08FEF9FEF2C960FB6F89401
S1131BE0DEBF0FBECDBFDF91CF911F910F91FF904C
S1131BF0EF90DF90CF90BF90AF909F908F907F90A9
S1131C006F905F904F903F902F900895FC01059046
S1131C10615070400110D8F7809590958E0F9F1FEA
S1131C200895FC016150704001900110D8F780952F
S1131C3090958E0F9F1F08950F931F93CF93DF935B
S1131C40FB01238121FD03C08FEF9FEF28C022FFFA
S1131C5016C046815781248135814217530744F4C5
S1131C60A081B1819D012F5F3F4F318320838C93ED
S1131C70268137812F5F3F4F3783268310C0EB01C6
S1131C80092F182F0084F185E02D0995892BE1F6A1
S1131C908E819F8101969F838E83812F902FDF9168
S1131CA0CF911F910F910895FA01AA27283051F17D
S1131CB0203181F1E8946F936E7F6E5F7F4F8F4F79
S1131CC09F4FAF4FB1E03ED0B4E03CD0670F781FD8
S1131CD0891F9A1FA11D680F791F8A1F911DA11DBD
S1131CE06A0F711D811D911DA11D20D009F46894F6
S1131CF03F912AE0269F11243019305D3193DEF69E
S1131D00CF010895462F4770405D4193B3E00FD053
S1131D10C9F7F6CF462F4F70405D4A3318F0495D3E
S1131D2031FD4052419302D0A9F7EACFB4E0A69521
S1131D309795879577956795BA95C9F70097610543
S1131D40710508959B01AC010A2E06945795479599
S1131D5037952795BA95C9F7620F731F841F951F8E
S10B1D60A01D0895F894FFCFC3
S1131D680300010300000000000000000000000060
S1131D780000000000F00F0FF0F0F00FF000010277
S1131D880306010405040601000000537563636536
S1131D9873732E004572726F7220696E20636F6DC3
S1131DA86D756E69636174696F6E2E00436F6C6C38
S1131DB8697373696F6E2064657465637465642EF2
S1131DC80054696D656F757420696E20636F6D6D5D
S1131DD8756E69636174696F6E2E00412062756661
S1131DE8666572206973206E6F7420626967206566
S1131DF86E6F7567682E00496E7465726E616C202B
S1131E086572726F7220696E2074686520636F64EE
S1131E18652E2053686F756C64206E6F742068613A
S1131E287070656E2E00496E76616C69642061720B
S1131E3867756D656E742E00546865204352435F60
S1131E484120646F6573206E6F74206D61746368DC
S1131E582E0041204D4946415245205049434320D4
S1131E68726573706F6E6465642077697468204E58
S1131E78414B2E00556E6B6E6F776E206572726FD4
S1131E8872005049434320636F6D706C69616E74CE
S1131E9820776974682049534F2F494543203134CA
S1131EA83434332D34005049434320636F6D706CD0
S1131EB869616E7420776974682049534F2F4945C6
S1131EC84320313830393220284E464329004D49C1
S1131ED846415245204D696E692C203332302062C8
S1131EE879746573004D494641524520314B42008F
S1131EF84D494641524520344B42004D49464152D2
S1131F084520556C7472616C69676874206F72201F
S1131F18556C7472616C696768742043004D494656
S1131F2841524520506C7573004D49464152452035
S1131F38544E50335858580053414B20696E6469C5
S1131F48636174657320554944206973206E6F7406
S1131F5820636F6D706C6574652E00556E6B6E6FC3
S1111F68776E207479706500253032780000A1
S9030000FC
